{
  "contractName": "Adoption",
  "abi": [
    {
      "constant": true,
      "inputs": [
        {
          "name": "",
          "type": "uint256"
        }
      ],
      "name": "adopters",
      "outputs": [
        {
          "name": "",
          "type": "address"
        }
      ],
      "payable": false,
      "stateMutability": "view",
      "type": "function"
    },
    {
      "constant": false,
      "inputs": [
        {
          "name": "petId",
          "type": "uint256"
        }
      ],
      "name": "adopt",
      "outputs": [
        {
          "name": "",
          "type": "uint256"
        }
      ],
      "payable": false,
      "stateMutability": "nonpayable",
      "type": "function"
    }
  ],
  "bytecode": "0x6060604052341561000f57600080fd5b6101c18061001e6000396000f30060606040526004361061004c576000357c0100000000000000000000000000000000000000000000000000000000900463ffffffff16806343ae80d3146100515780638588b2c5146100b4575b600080fd5b341561005c57600080fd5b61007260048080359060200190919050506100eb565b604051808273ffffffffffffffffffffffffffffffffffffffff1673ffffffffffffffffffffffffffffffffffffffff16815260200191505060405180910390f35b34156100bf57600080fd5b6100d56004808035906020019091905050610120565b6040518082815260200191505060405180910390f35b6000816010811015156100fa57fe5b016000915054906101000a900473ffffffffffffffffffffffffffffffffffffffff1681565b60008082101580156101335750600f8211155b151561013e57600080fd5b3360008360108110151561014e57fe5b0160006101000a81548173ffffffffffffffffffffffffffffffffffffffff021916908373ffffffffffffffffffffffffffffffffffffffff1602179055508190509190505600a165627a7a723058200bdc444faffa8e2d0ff1b4a543aea9ee32e928e01d74bfbccdcf5c0ad4544d890029",
  "source": "pragma solidity ^0.4.17;\n\ncontract Adoption {\n\n    address[16] public adopters;\n\n    // Adopting a pet\nfunction adopt(uint petId) public returns (uint) {\n  require(petId >= 0 && petId <= 15);\n\n  adopters[petId] = msg.sender;\n\n  return petId;\n}\n\n}",
  "sourcePath": "/Users/rickykirkendall/Documents/Code/eth/pet/contracts/Adoption.sol",
  "compiler": {
    "name": "solc",
    "version": "0.4.19+commit.c4cbbb05.Emscripten.clang"
  },
  "schemaVersion": "2.0.0",
  "updatedAt": "2018-03-23T21:53:59.795Z"
}